{
  "contractName": "Treasury",
  "abi": [
    {
      "anonymous": false,
      "inputs": [
        {
          "indexed": true,
          "internalType": "uint256",
          "name": "amount",
          "type": "uint256"
        }
      ],
      "name": "receiveFundEvent",
      "type": "event"
    },
    {
      "anonymous": false,
      "inputs": [
        {
          "indexed": true,
          "internalType": "address",
          "name": "borrower",
          "type": "address"
        },
        {
          "indexed": true,
          "internalType": "uint256",
          "name": "amount",
          "type": "uint256"
        }
      ],
      "name": "withdrawEvent",
      "type": "event"
    },
    {
      "inputs": [
        {
          "internalType": "address",
          "name": "",
          "type": "address"
        }
      ],
      "name": "addressToAmt",
      "outputs": [
        {
          "internalType": "uint256",
          "name": "",
          "type": "uint256"
        }
      ],
      "stateMutability": "view",
      "type": "function",
      "constant": true
    },
    {
      "inputs": [
        {
          "internalType": "address",
          "name": "",
          "type": "address"
        }
      ],
      "name": "addressToTime",
      "outputs": [
        {
          "internalType": "uint256",
          "name": "",
          "type": "uint256"
        }
      ],
      "stateMutability": "view",
      "type": "function",
      "constant": true
    },
    {
      "inputs": [
        {
          "internalType": "uint256",
          "name": "_amt",
          "type": "uint256"
        },
        {
          "internalType": "uint256",
          "name": "_days",
          "type": "uint256"
        }
      ],
      "name": "calApproxInterest",
      "outputs": [
        {
          "internalType": "uint256",
          "name": "",
          "type": "uint256"
        }
      ],
      "stateMutability": "pure",
      "type": "function",
      "constant": true
    },
    {
      "inputs": [
        {
          "internalType": "uint256",
          "name": "_collateralVal",
          "type": "uint256"
        }
      ],
      "name": "calMaxEligibleAmt",
      "outputs": [
        {
          "internalType": "uint256",
          "name": "",
          "type": "uint256"
        }
      ],
      "stateMutability": "pure",
      "type": "function",
      "constant": true
    },
    {
      "inputs": [],
      "name": "calculateInterest",
      "outputs": [
        {
          "internalType": "uint256",
          "name": "",
          "type": "uint256"
        }
      ],
      "stateMutability": "view",
      "type": "function",
      "constant": true
    },
    {
      "inputs": [
        {
          "internalType": "uint256",
          "name": "_collateralVal",
          "type": "uint256"
        }
      ],
      "name": "calculateLoanAmt",
      "outputs": [
        {
          "internalType": "uint256",
          "name": "",
          "type": "uint256"
        }
      ],
      "stateMutability": "pure",
      "type": "function",
      "constant": true
    },
    {
      "inputs": [],
      "name": "calculateTotalPayable",
      "outputs": [
        {
          "internalType": "uint256",
          "name": "",
          "type": "uint256"
        }
      ],
      "stateMutability": "view",
      "type": "function",
      "constant": true
    },
    {
      "inputs": [],
      "name": "fetchTimeSpent",
      "outputs": [
        {
          "internalType": "uint256",
          "name": "",
          "type": "uint256"
        }
      ],
      "stateMutability": "view",
      "type": "function",
      "constant": true
    },
    {
      "inputs": [
        {
          "internalType": "uint256",
          "name": "_newVal",
          "type": "uint256"
        }
      ],
      "name": "modifyLTV",
      "outputs": [],
      "stateMutability": "nonpayable",
      "type": "function"
    },
    {
      "inputs": [
        {
          "internalType": "uint256",
          "name": "_collateralVal",
          "type": "uint256"
        }
      ],
      "name": "requestForLoan",
      "outputs": [],
      "stateMutability": "nonpayable",
      "type": "function"
    },
    {
      "inputs": [
        {
          "internalType": "uint256",
          "name": "_collval",
          "type": "uint256"
        }
      ],
      "name": "callMaxEligibleAmt",
      "outputs": [
        {
          "internalType": "uint256",
          "name": "",
          "type": "uint256"
        }
      ],
      "stateMutability": "pure",
      "type": "function",
      "constant": true
    },
    {
      "inputs": [
        {
          "internalType": "uint256",
          "name": "_amt",
          "type": "uint256"
        },
        {
          "internalType": "uint256",
          "name": "_days",
          "type": "uint256"
        }
      ],
      "name": "callApproxInterest",
      "outputs": [
        {
          "internalType": "uint256",
          "name": "",
          "type": "uint256"
        }
      ],
      "stateMutability": "pure",
      "type": "function",
      "constant": true
    },
    {
      "inputs": [
        {
          "internalType": "uint256",
          "name": "_collateralVal",
          "type": "uint256"
        },
        {
          "internalType": "uint256",
          "name": "_collId",
          "type": "uint256"
        },
        {
          "internalType": "string",
          "name": "_collName",
          "type": "string"
        }
      ],
      "name": "withdraw",
      "outputs": [
        {
          "internalType": "uint256",
          "name": "",
          "type": "uint256"
        }
      ],
      "stateMutability": "nonpayable",
      "type": "function"
    },
    {
      "inputs": [
        {
          "internalType": "uint256",
          "name": "_loanId",
          "type": "uint256"
        }
      ],
      "name": "rePay",
      "outputs": [],
      "stateMutability": "payable",
      "type": "function",
      "payable": true
    },
    {
      "inputs": [],
      "name": "checkPaybleAmt",
      "outputs": [
        {
          "internalType": "uint256",
          "name": "",
          "type": "uint256"
        }
      ],
      "stateMutability": "view",
      "type": "function",
      "constant": true
    },
    {
      "inputs": [],
      "name": "getContractBalance",
      "outputs": [
        {
          "internalType": "uint256",
          "name": "",
          "type": "uint256"
        }
      ],
      "stateMutability": "view",
      "type": "function",
      "constant": true
    },
    {
      "inputs": [],
      "name": "fakeFund",
      "outputs": [],
      "stateMutability": "payable",
      "type": "function",
      "payable": true
    }
  ],
  "bytecode": "0x6080604052601460005560405161001590610084565b604051809103906000f080158015610031573d6000803e3d6000fd5b50600460006101000a81548173ffffffffffffffffffffffffffffffffffffffff021916908373ffffffffffffffffffffffffffffffffffffffff16021790555034801561007e57600080fd5b50610091565b6112ae806113a283390190565b611302806100a06000396000f3fe60806040526004361061011b576000357c0100000000000000000000000000000000000000000000000000000000900480634aa4807d116100b2578063ac6abf7111610081578063ac6abf711461035c578063d00bebfd14610399578063eb0c4955146103c4578063f06b7cba146103ef578063f4d85f5a1461041a5761011b565b80634aa4807d1461029b5780635235c4a7146102b75780636f9fb98a146102f457806385dc5ff01461031f5761011b565b80633759e542116100ee5780633759e542146101ec5780634105e7a41461021757806347c447381461022157806348b475671461025e5761011b565b80631667fea414610120578063310b551414610149578063369c681b146101865780633724a451146101c3575b600080fd5b34801561012c57600080fd5b5061014760048036038101906101429190610ce2565b610457565b005b34801561015557600080fd5b50610170600480360381019061016b9190610ce2565b6104f0565b60405161017d9190610d1e565b60405180910390f35b34801561019257600080fd5b506101ad60048036038101906101a89190610e7f565b61051d565b6040516101ba9190610d1e565b60405180910390f35b3480156101cf57600080fd5b506101ea60048036038101906101e59190610ce2565b610755565b005b3480156101f857600080fd5b5061020161075f565b60405161020e9190610d1e565b60405180910390f35b61021f610856565b005b34801561022d57600080fd5b5061024860048036038101906102439190610f4c565b610858565b6040516102559190610d1e565b60405180910390f35b34801561026a57600080fd5b5061028560048036038101906102809190610f79565b610870565b6040516102929190610d1e565b60405180910390f35b6102b560048036038101906102b09190610ce2565b610889565b005b3480156102c357600080fd5b506102de60048036038101906102d99190610ce2565b6109bc565b6040516102eb9190610d1e565b60405180910390f35b34801561030057600080fd5b506103096109d3565b6040516103169190610d1e565b60405180910390f35b34801561032b57600080fd5b5061034660048036038101906103419190610f4c565b6109f2565b6040516103539190610d1e565b60405180910390f35b34801561036857600080fd5b50610383600480360381019061037e9190610f79565b610a0a565b6040516103909190610d1e565b60405180910390f35b3480156103a557600080fd5b506103ae610a58565b6040516103bb9190610d1e565b60405180910390f35b3480156103d057600080fd5b506103d9610b00565b6040516103e69190610d1e565b60405180910390f35b3480156103fb57600080fd5b50610404610be6565b6040516104119190610d1e565b60405180910390f35b34801561042657600080fd5b50610441600480360381019061043c9190610ce2565b610bf5565b60405161044e9190610d1e565b60405180910390f35b6000610462826104f0565b905080600160003373ffffffffffffffffffffffffffffffffffffffff1673ffffffffffffffffffffffffffffffffffffffff1681526020019081526020016000208190555043600260003373ffffffffffffffffffffffffffffffffffffffff1673ffffffffffffffffffffffffffffffffffffffff168152602001908152602001600020819055505050565b6000806014836105009190610fe8565b905060006064905080826105149190611059565b92505050919050565b6000610528846104f0565b6003819055506000600460009054906101000a900473ffffffffffffffffffffffffffffffffffffffff1673ffffffffffffffffffffffffffffffffffffffff1663e75da598336003546040518363ffffffff167c01000000000000000000000000000000000000000000000000000000000281526004016105ab929190611099565b6020604051808303816000875af11580156105ca573d6000803e3d6000fd5b505050506040513d601f19601f820116820180604052508101906105ee91906110d7565b9050600460009054906101000a900473ffffffffffffffffffffffffffffffffffffffff1673ffffffffffffffffffffffffffffffffffffffff1663172c36a6858588336040518563ffffffff167c010000000000000000000000000000000000000000000000000000000002815260040161066d9493929190611183565b6020604051808303816000875af115801561068c573d6000803e3d6000fd5b505050506040513d601f19601f820116820180604052508101906106b091906110d7565b90506106bb85610457565b3373ffffffffffffffffffffffffffffffffffffffff166108fc6003549081150290604051600060405180830381858888f19350505050158015610703573d6000803e3d6000fd5b506003543373ffffffffffffffffffffffffffffffffffffffff167f87d5f4772963d1f9b76047158b4ae97c420a1b3bff2a746c828beffd9e7c3e2660405160405180910390a3809150509392505050565b8060008190555050565b600080600160003373ffffffffffffffffffffffffffffffffffffffff1673ffffffffffffffffffffffffffffffffffffffff1681526020019081526020016000205490506000600260003373ffffffffffffffffffffffffffffffffffffffff1673ffffffffffffffffffffffffffffffffffffffff16815260200190815260200160002054436107f191906111cf565b905060006090826108029190611059565b90506000610ab39050600081838661081a9190610fe8565b6108249190610fe8565b90506000620186a0826108379190611059565b9050600081876108479190611203565b90508097505050505050505090565b565b60016020528060005260406000206000915090505481565b60008061087d8484610a0a565b90508091505092915050565b600061089361075f565b9050803410156108d8576040517f08c379a00000000000000000000000000000000000000000000000000000000081526004016108cf90611283565b60405180910390fd5b600460009054906101000a900473ffffffffffffffffffffffffffffffffffffffff1673ffffffffffffffffffffffffffffffffffffffff1663918344d383336040518363ffffffff167c01000000000000000000000000000000000000000000000000000000000281526004016109519291906112a3565b600060405180830381600087803b15801561096b57600080fd5b505af115801561097f573d6000803e3d6000fd5b5050505061098b610c0c565b347f726c096d1a84e65797b0e1c2d426df226decb94c417e497716b016206153fb6860405160405180910390a25050565b6000806109c883610bf5565b905080915050919050565b60003073ffffffffffffffffffffffffffffffffffffffff1631905090565b60026020528060005260406000206000915090505481565b60008083905060008390506000610ab390506000818385610a2b9190610fe8565b610a359190610fe8565b90506000620186a082610a489190611059565b9050809550505050505092915050565b6000806000600260003373ffffffffffffffffffffffffffffffffffffffff1673ffffffffffffffffffffffffffffffffffffffff1681526020019081526020016000205414610af457600260003373ffffffffffffffffffffffffffffffffffffffff1673ffffffffffffffffffffffffffffffffffffffff1681526020019081526020016000205443610aed91906111cf565b9050610af9565b600090505b8091505090565b600080600160003373ffffffffffffffffffffffffffffffffffffffff1673ffffffffffffffffffffffffffffffffffffffff1681526020019081526020016000205490506000600260003373ffffffffffffffffffffffffffffffffffffffff1673ffffffffffffffffffffffffffffffffffffffff1681526020019081526020016000205443610b9291906111cf565b90506000609082610ba39190611059565b90506000610ab390506000818386610bbb9190610fe8565b610bc59190610fe8565b90506000620186a082610bd89190611059565b905080965050505050505090565b6000610bf0610b00565b905090565b600080610c01836104f0565b905080915050919050565b6000600160003373ffffffffffffffffffffffffffffffffffffffff1673ffffffffffffffffffffffffffffffffffffffff168152602001908152602001600020819055506000600260003373ffffffffffffffffffffffffffffffffffffffff1673ffffffffffffffffffffffffffffffffffffffff16815260200190815260200160002081905550565b6000604051905090565b600080fd5b600080fd5b6000819050919050565b610cbf81610cac565b8114610cca57600080fd5b50565b600081359050610cdc81610cb6565b92915050565b600060208284031215610cf857610cf7610ca2565b5b6000610d0684828501610ccd565b91505092915050565b610d1881610cac565b82525050565b6000602082019050610d336000830184610d0f565b92915050565b600080fd5b600080fd5b6000601f19601f8301169050919050565b7f4e487b7100000000000000000000000000000000000000000000000000000000600052604160045260246000fd5b610d8c82610d43565b810181811067ffffffffffffffff82111715610dab57610daa610d54565b5b80604052505050565b6000610dbe610c98565b9050610dca8282610d83565b919050565b600067ffffffffffffffff821115610dea57610de9610d54565b5b610df382610d43565b9050602081019050919050565b82818337600083830152505050565b6000610e22610e1d84610dcf565b610db4565b905082815260208101848484011115610e3e57610e3d610d3e565b5b610e49848285610e00565b509392505050565b600082601f830112610e6657610e65610d39565b5b8135610e76848260208601610e0f565b91505092915050565b600080600060608486031215610e9857610e97610ca2565b5b6000610ea686828701610ccd565b9350506020610eb786828701610ccd565b925050604084013567ffffffffffffffff811115610ed857610ed7610ca7565b5b610ee486828701610e51565b9150509250925092565b600073ffffffffffffffffffffffffffffffffffffffff82169050919050565b6000610f1982610eee565b9050919050565b610f2981610f0e565b8114610f3457600080fd5b50565b600081359050610f4681610f20565b92915050565b600060208284031215610f6257610f61610ca2565b5b6000610f7084828501610f37565b91505092915050565b60008060408385031215610f9057610f8f610ca2565b5b6000610f9e85828601610ccd565b9250506020610faf85828601610ccd565b9150509250929050565b7f4e487b7100000000000000000000000000000000000000000000000000000000600052601160045260246000fd5b6000610ff382610cac565b9150610ffe83610cac565b925082820261100c81610cac565b9150828204841483151761102357611022610fb9565b5b5092915050565b7f4e487b7100000000000000000000000000000000000000000000000000000000600052601260045260246000fd5b600061106482610cac565b915061106f83610cac565b92508261107f5761107e61102a565b5b828204905092915050565b61109381610f0e565b82525050565b60006040820190506110ae600083018561108a565b6110bb6020830184610d0f565b9392505050565b6000815190506110d181610cb6565b92915050565b6000602082840312156110ed576110ec610ca2565b5b60006110fb848285016110c2565b91505092915050565b600081519050919050565b600082825260208201905092915050565b60005b8381101561113e578082015181840152602081019050611123565b60008484015250505050565b600061115582611104565b61115f818561110f565b935061116f818560208601611120565b61117881610d43565b840191505092915050565b60006080820190506111986000830187610d0f565b81810360208301526111aa818661114a565b90506111b96040830185610d0f565b6111c6606083018461108a565b95945050505050565b60006111da82610cac565b91506111e583610cac565b92508282039050818111156111fd576111fc610fb9565b5b92915050565b600061120e82610cac565b915061121983610cac565b925082820190508082111561123157611230610fb9565b5b92915050565b7f52657061792054686520636f727265637420616d6f756e740000000000000000600082015250565b600061126d60188361110f565b915061127882611237565b602082019050919050565b6000602082019050818103600083015261129c81611260565b9050919050565b60006040820190506112b86000830185610d0f565b6112c5602083018461108a565b939250505056fea2646970667358221220e1f25e30f3da84f8be0322ee71e29db8f536d944f59a1adcd07e855f95767ef664736f6c634300081100336080604052738798886b80638f4aa3bad4f528497a335bdd9247600360006101000a81548173ffffffffffffffffffffffffffffffffffffffff021916908373ffffffffffffffffffffffffffffffffffffffff16021790555034801561006557600080fd5b50611239806100756000396000f3fe608060405234801561001057600080fd5b5060043610610069576000357c010000000000000000000000000000000000000000000000000000000090048063172c36a61461006e578063918344d31461009e578063e75da598146100ba578063ff8fcb3f146100ea575b600080fd5b61008860048036038101906100839190610a05565b61011a565b6040516100959190610a97565b60405180910390f35b6100b860048036038101906100b39190610ab2565b6102ef565b005b6100d460048036038101906100cf9190610af2565b6104a1565b6040516100e19190610a97565b60405180910390f35b61010460048036038101906100ff9190610cdb565b6105b0565b6040516101119190610a97565b60405180910390f35b600080600360009054906101000a900473ffffffffffffffffffffffffffffffffffffffff169050600061014e60006107f3565b9050600160008281526020019081526020016000206040518060c001604052808981526020018881526020018781526020018673ffffffffffffffffffffffffffffffffffffffff1681526020018473ffffffffffffffffffffffffffffffffffffffff168152602001600060028111156101cc576101cb610d96565b5b81525090806001815401808255809150506001900390600052602060002090600502016000909190919091506000820151816000015560208201518160010190816102179190610fe2565b506040820151816002015560608201518160030160006101000a81548173ffffffffffffffffffffffffffffffffffffffff021916908373ffffffffffffffffffffffffffffffffffffffff16021790555060808201518160040160006101000a81548173ffffffffffffffffffffffffffffffffffffffff021916908373ffffffffffffffffffffffffffffffffffffffff16021790555060a08201518160040160146101000a81548160ff021916908360028111156102db576102da610d96565b5b021790555050508092505050949350505050565b60006002600084815260200190815260200160002090508060030160009054906101000a900460ff166040516020016103289190611142565b6040516020818303038152906040528051906020012060016040516020016103509190611142565b60405160208183030381529060405280519060200120036103995760028160030160006101000a81548160ff0219169083600381111561039357610392610d96565b5b02179055505b600060016000858152602001908152602001600020805490509050600060016000868152602001908152602001600020905060005b828110156104995760018282815481106103eb576103ea61115d565b5b906000526020600020906005020160040160146101000a81548160ff0219169083600281111561041e5761041d610d96565b5b0217905550848282815481106104375761043661115d565b5b906000526020600020906005020160040160006101000a81548173ffffffffffffffffffffffffffffffffffffffff021916908373ffffffffffffffffffffffffffffffffffffffff1602179055508080610491906111bb565b9150506103ce565b505050505050565b60006104ad6000610801565b60006104b960006107f3565b905060405180608001604052808281526020018573ffffffffffffffffffffffffffffffffffffffff1681526020018481526020016000600381111561050257610501610d96565b5b815250600260008381526020019081526020016000206000820151816000015560208201518160010160006101000a81548173ffffffffffffffffffffffffffffffffffffffff021916908373ffffffffffffffffffffffffffffffffffffffff1602179055506040820151816002015560608201518160030160006101000a81548160ff0219169083600381111561059e5761059d610d96565b5b02179055509050508091505092915050565b600080600360009054906101000a900473ffffffffffffffffffffffffffffffffffffffff16905060006105e460006107f3565b905060005b60048110156107e557600160008381526020019081526020016000206040518060c001604052808a84815181106106235761062261115d565b5b602002602001015181526020018984815181106106435761064261115d565b5b602002602001015181526020018884815181106106635761066261115d565b5b602002602001015181526020018773ffffffffffffffffffffffffffffffffffffffff1681526020018573ffffffffffffffffffffffffffffffffffffffff168152602001600060028111156106bc576106bb610d96565b5b81525090806001815401808255809150506001900390600052602060002090600502016000909190919091506000820151816000015560208201518160010190816107079190610fe2565b506040820151816002015560608201518160030160006101000a81548173ffffffffffffffffffffffffffffffffffffffff021916908373ffffffffffffffffffffffffffffffffffffffff16021790555060808201518160040160006101000a81548173ffffffffffffffffffffffffffffffffffffffff021916908373ffffffffffffffffffffffffffffffffffffffff16021790555060a08201518160040160146101000a81548160ff021916908360028111156107cb576107ca610d96565b5b0217905550505080806107dd906111bb565b9150506105e9565b508092505050949350505050565b600081600001549050919050565b6001816000016000828254019250508190555050565b6000604051905090565b600080fd5b600080fd5b6000819050919050565b61083e8161082b565b811461084957600080fd5b50565b60008135905061085b81610835565b92915050565b600080fd5b600080fd5b6000601f19601f8301169050919050565b7f4e487b7100000000000000000000000000000000000000000000000000000000600052604160045260246000fd5b6108b48261086b565b810181811067ffffffffffffffff821117156108d3576108d261087c565b5b80604052505050565b60006108e6610817565b90506108f282826108ab565b919050565b600067ffffffffffffffff8211156109125761091161087c565b5b61091b8261086b565b9050602081019050919050565b82818337600083830152505050565b600061094a610945846108f7565b6108dc565b90508281526020810184848401111561096657610965610866565b5b610971848285610928565b509392505050565b600082601f83011261098e5761098d610861565b5b813561099e848260208601610937565b91505092915050565b600073ffffffffffffffffffffffffffffffffffffffff82169050919050565b60006109d2826109a7565b9050919050565b6109e2816109c7565b81146109ed57600080fd5b50565b6000813590506109ff816109d9565b92915050565b60008060008060808587031215610a1f57610a1e610821565b5b6000610a2d8782880161084c565b945050602085013567ffffffffffffffff811115610a4e57610a4d610826565b5b610a5a87828801610979565b9350506040610a6b8782880161084c565b9250506060610a7c878288016109f0565b91505092959194509250565b610a918161082b565b82525050565b6000602082019050610aac6000830184610a88565b92915050565b60008060408385031215610ac957610ac8610821565b5b6000610ad78582860161084c565b9250506020610ae8858286016109f0565b9150509250929050565b60008060408385031215610b0957610b08610821565b5b6000610b17858286016109f0565b9250506020610b288582860161084c565b9150509250929050565b600067ffffffffffffffff821115610b4d57610b4c61087c565b5b602082029050602081019050919050565b600080fd5b6000610b76610b7184610b32565b6108dc565b90508083825260208201905060208402830185811115610b9957610b98610b5e565b5b835b81811015610bc25780610bae888261084c565b845260208401935050602081019050610b9b565b5050509392505050565b600082601f830112610be157610be0610861565b5b8135610bf1848260208601610b63565b91505092915050565b600067ffffffffffffffff821115610c1557610c1461087c565b5b602082029050602081019050919050565b6000610c39610c3484610bfa565b6108dc565b90508083825260208201905060208402830185811115610c5c57610c5b610b5e565b5b835b81811015610ca357803567ffffffffffffffff811115610c8157610c80610861565b5b808601610c8e8982610979565b85526020850194505050602081019050610c5e565b5050509392505050565b600082601f830112610cc257610cc1610861565b5b8135610cd2848260208601610c26565b91505092915050565b60008060008060808587031215610cf557610cf4610821565b5b600085013567ffffffffffffffff811115610d1357610d12610826565b5b610d1f87828801610bcc565b945050602085013567ffffffffffffffff811115610d4057610d3f610826565b5b610d4c87828801610cad565b935050604085013567ffffffffffffffff811115610d6d57610d6c610826565b5b610d7987828801610bcc565b9250506060610d8a878288016109f0565b91505092959194509250565b7f4e487b7100000000000000000000000000000000000000000000000000000000600052602160045260246000fd5b600081519050919050565b7f4e487b7100000000000000000000000000000000000000000000000000000000600052602260045260246000fd5b60006002820490506001821680610e1757607f821691505b602082108103610e2a57610e29610dd0565b5b50919050565b60008190508160005260206000209050919050565b60006020601f8301049050919050565b60008160020a8302905092915050565b600060088302610e957fffffffffffffffffffffffffffffffffffffffffffffffffffffffffffffffff82610e55565b610e9f8683610e55565b95508019841693508086168417925050509392505050565b6000819050919050565b6000610edc610ed7610ed28461082b565b610eb7565b61082b565b9050919050565b6000819050919050565b610ef683610ec1565b610f0a610f0282610ee3565b848454610e65565b825550505050565b600090565b610f1f610f12565b610f2a818484610eed565b505050565b5b81811015610f4e57610f43600082610f17565b600181019050610f30565b5050565b601f821115610f9357610f6481610e30565b610f6d84610e45565b81016020851015610f7c578190505b610f90610f8885610e45565b830182610f2f565b50505b505050565b60008160020a8304905092915050565b6000610fb960001984600802610f98565b1980831691505092915050565b6000610fd28383610fa8565b9150826002028217905092915050565b610feb82610dc5565b67ffffffffffffffff8111156110045761100361087c565b5b61100e8254610dff565b611019828285610f52565b600060209050601f83116001811461104c576000841561103a578287015190505b6110448582610fc6565b8655506110ac565b601f19841661105a86610e30565b60005b828110156110825784890151825560018201915060208501945060208101905061105d565b8683101561109f578489015161109b601f891682610fa8565b8355505b6001600288020188555050505b505050505050565b600481106110c5576110c4610d96565b5b50565b60008190506110d6826110b4565b919050565b60006110e6826110c8565b9050919050565b60007f010000000000000000000000000000000000000000000000000000000000000082029050919050565b6000611124826110ed565b9050919050565b61113c611137826110db565b611119565b82525050565b600061114e828461112b565b60018201915081905092915050565b7f4e487b7100000000000000000000000000000000000000000000000000000000600052603260045260246000fd5b7f4e487b7100000000000000000000000000000000000000000000000000000000600052601160045260246000fd5b60006111c68261082b565b91507fffffffffffffffffffffffffffffffffffffffffffffffffffffffffffffffff82036111f8576111f761118c565b5b60018201905091905056fea2646970667358221220fa742587d9db8bff67d45dd5e7b8b543b7a3780b9252588dea44333e412f953b64736f6c63430008110033",
  "immutableReferences": {},
  "source": "// SPDX-License-Identifier: UNLICENSED\r\npragma solidity ^0.8.0;\r\n\r\nimport \"./LendingLogic.sol\";\r\nimport {LoanOperations} from \"./LoanOperations.sol\";\r\ncontract Treasury is Lending{\r\n    uint eligibleAmt;\r\n    LoanOperations loanOperation= new LoanOperations();\r\n       event receiveFundEvent(\r\n     uint  indexed  amount \r\n   );\r\n   event withdrawEvent(\r\n       address  indexed borrower,\r\n       uint indexed amount\r\n   );\r\n   function callMaxEligibleAmt(uint _collval) public pure returns(uint) // geting the max borrow amt\r\n   {\r\n     uint loanAmt = super.calMaxEligibleAmt(_collval);\r\n     return loanAmt;\r\n   }\r\n   function callApproxInterest(uint _amt , uint _days) public pure returns(uint) // getting the approx interest rate\r\n   {\r\n      uint interest = super.calApproxInterest(_amt,_days);\r\n      return interest;\r\n   }\r\n   function withdraw (uint256  _collateralVal,uint _collId,string memory _collName) public returns(uint)\r\n   {  \r\n    eligibleAmt = super.calculateLoanAmt( _collateralVal);\r\n    uint loanId=loanOperation.createLoan(msg.sender,eligibleAmt);\r\n    loanId=loanOperation.addcollateral(_collId,_collName,_collateralVal,msg.sender);\r\n    super.requestForLoan(_collateralVal);\r\n    payable(msg.sender).transfer(eligibleAmt);\r\n    emit withdrawEvent(msg.sender,eligibleAmt);\r\n    return loanId;\r\n   }\r\n    function rePay(uint _loanId) payable public \r\n   {\r\n    uint amt = super.calculateTotalPayable();\r\n    require(msg.value>=amt,\"Repay The correct amount\");\r\n    loanOperation.repayLoan(_loanId,msg.sender);\r\n    super.resetValue();\r\n    emit receiveFundEvent(msg.value);\r\n   }\r\n     function checkPaybleAmt() public view returns(uint) \r\n  {\r\n    return super.calculateInterest();\r\n  }\r\n    function getContractBalance() public view returns(uint)\r\n  {\r\n    return address(this).balance;\r\n  }\r\n  function fakeFund() public payable{}\r\n   \r\n}",
  "sourcePath": "C:\\Users\\soumy\\Desktop\\rootstock-testing\\Ordinal Dao\\smart contracts\\contracts\\protocol-core\\Treasury.sol",
  "compiler": {
    "name": "solc",
    "version": "0.8.17+commit.8df45f5f.Emscripten.clang"
  },
  "schemaVersion": "3.4.14",
  "updatedAt": "2023-09-05T05:27:52.182Z",
  "networkType": "ethereum",
  "devdoc": {
    "kind": "dev",
    "methods": {},
    "version": 1
  },
  "userdoc": {
    "kind": "user",
    "methods": {},
    "version": 1
  }
}